:020000040800F2
:100000001C040020010400086D04000837080008E3
:100010006D0400086D0400086D0400080000000075
:100020000000000000000000000000006D04000857
:100030006D040008000000006D0400086D04000855
:100040006D0400086D0400086D0400086D040008CC
:100050006D0400086D0400086D0400086D040008BC
:100060006D0400086D0400086D0400086D040008AC
:100070006D0400086D0400086D0400086D0400089C
:100080006D0400086D0400086D0400086D0400088C
:100090006D0400086D0400086D0400086D0400087C
:1000A0006D0400086D0400086D0400086D0400086C
:1000B0006D0400086D0400086D0400086D0400085C
:1000C0006D0400086D0400086D0400086D0400084C
:1000D0006D0400086D0400086D0400086D0400083C
:1000E0006D0400086D0400086D04000800000000A5
:1000F0000000000000000000000000000000000000
:1001000000000000000000005FF808F180B500AFBB
:1001100000F002F880BD00BF80B500AF00F0B0F97C
:100120004FF4803000F0FAF900F03CFA03461A462A
:1001300040F20003C2F200031A704FF0100000F00A
:10014000A5FB4FF0020000F081FB4FF0000000F033
:10015000BFFA4FF0000000F0FBFA4FF4806000F0AF
:10016000D7FA4FF440304FF4E01100F04DFA4FF061
:10017000010000F06DFA00BF4FF0390000F00AFBFB
:100180000346002BF8D04FF0020000F071FA00BFD8
:1001900000F08EFA0346082BFAD180BD80B500AF7F
:1001A0004FF48053C4F202034FF48052C4F20202AF
:1001B000126842F001021A604FF48052C4F2020247
:1001C0004FF48053C4F202035B6819464FF00003FA
:1001D000CFF6FF030B4053604FF48053C4F2020389
:1001E0004FF48052C4F20202126822F0847222F4A8
:1001F00080321A604FF48053C4F202034FF48052ED
:10020000C4F20202126822F480221A604FF4805372
:10021000C4F202034FF48052C4F20202526822F484
:10022000FE025A604FF48053C4F202034FF41F02DF
:100230009A6000F009F84FF46D43CEF200034FF0DE
:1002400000629A6080BD00BF80B500AF00F002F888
:1002500080BD00BF80B483B000AF4FF000037B606F
:100260004FF000033B604FF48053C4F202034FF49D
:100270008052C4F20202126842F480321A604FF4D3
:100280008053C4F202031B6803F400333B607B68B5
:1002900003F101037B603B68002B03D17B68B3F55E
:1002A000A06FECD14FF48053C4F202031B6803F437
:1002B0000033002B03D04FF001033B6002E04FF00E
:1002C00000033B603B68012B40F094804FF40053E7
:1002D000C4F202034FF40052C4F20202126842F068
:1002E00010021A604FF40053C4F202034FF400529C
:1002F000C4F20202126822F003021A604FF40053A3
:10030000C4F202034FF40052C4F20202126842F037
:1003100002021A604FF48053C4F202034FF4805279
:10032000C4F2020252685A604FF48053C4F20203CE
:100330004FF48052C4F2020252685A604FF4805364
:10034000C4F202034FF48052C4F20202526842F433
:1003500080625A604FF48053C4F202034FF480521B
:10036000C4F20202526822F47C125A604FF48053A5
:10037000C4F202034FF48052C4F20202526842F403
:10038000E8125A604FF48053C4F202034FF48052D3
:10039000C4F20202126842F080721A6000BF4FF489
:1003A0008053C4F202031B6803F00073002BF6D0E5
:1003B0004FF48053C4F202034FF48052C4F202029D
:1003C000526822F003025A604FF48053C4F20203D1
:1003D0004FF48052C4F20202526842F002025A60A4
:1003E00000BF4FF48053C4F202035B6803F00C03B8
:1003F000082BF6D107F10C07BD4680BC704700BF43
:1004000080B582B000AF40F6D003C0F600037B6039
:1004100040F20003C2F200033B600BE07B681A6805
:100420003B681A603B6803F104033B607B6803F19F
:1004300004037B603A6840F20003C2F200039A4270
:10044000ECD3084808494FF000028842B8BF40F892
:10045000042BFADBFFF7A2FE00F00CF807F1080707
:10046000BD4680BD000000201C00002080B400AF0D
:10047000FEE700BF80B500AFFFF748FEFEE700BF14
:1004800080B400AF4FF48053C4F202034FF48052A3
:10049000C4F20202126842F001021A604FF4805264
:1004A000C4F202024FF48053C4F202035B6819469F
:1004B0004FF00003CFF6FF030B4053604FF480531F
:1004C000C4F202034FF48052C4F20202126822F016
:1004D000847222F480321A604FF48053C4F2020313
:1004E0004FF48052C4F20202126822F480221A6091
:1004F0004FF48053C4F202034FF48052C4F202025C
:10050000526822F4FE025A604FF48053C4F2020390
:100510004FF41F029A60BD4680BC704780B483B020
:1005200000AF78604FF48053C4F202034FF480525E
:10053000C4F20202126822F480321A604FF480532F
:10054000C4F202034FF48052C4F20202126822F491
:1005500080221A607B68B3F5803F03D0B3F5802F0B
:100560000DD019E04FF48053C4F202034FF48052CF
:10057000C4F20202126842F480321A600DE04FF4B5
:100580008053C4F202034FF48052C4F20202126894
:1005900042F4A0221A6000E000BF07F10C07BD463C
:1005A00080BC704780B582B000AF4FF000033B6065
:1005B0004FF00003FB714FF00003BB714FF03100AF
:1005C00000F0E8F80346BB713B6803F101033B60B0
:1005D0003B68B3F5A06F02D0BB79002BEED04FF093
:1005E000310000F0D7F80346002B03D04FF0010391
:1005F000FB7102E04FF00003FB71FB79184607F135
:100600000807BD4680BD00BF80B485B000AF7860EC
:1006100039604FF00003FB604FF48053C4F20203D3
:100620005B68FB60FB6823F47C13FB607A683B68C3
:100630001343FA681343FB604FF48053C4F2020380
:10064000FA685A6007F11407BD4680BC704700BFC6
:1006500080B483B000AF0346FB714FF06003C4F277
:100660004223FA791A6007F10C07BD4680BC704737
:1006700080B485B000AF78604FF00003FB604FF4AA
:100680008053C4F202035B68FB60FB6823F0030342
:10069000FB60FA687B681343FB604FF48053C4F23D
:1006A0000203FA685A6007F11407BD4680BC704720
:1006B00080B400AF4FF48053C4F202035B68DBB236
:1006C00003F00C03DBB21846BD4680BC704700BF88
:1006D00080B485B000AF78604FF00003FB604FF44A
:1006E0008053C4F202035B68FB60FB6823F0F003F5
:1006F000FB60FA687B681343FB604FF48053C4F2DD
:100700000203FA685A6007F11407BD4680BC7047BF
:1007100080B485B000AF78604FF00003FB604FF409
:100720008053C4F202035B68FB60FB6823F4E06360
:10073000FB60FA687B681343FB604FF48053C4F29C
:100740000203FA685A6007F11407BD4680BC70477F
:1007500080B485B000AF78604FF00003FB604FF4C9
:100760008053C4F202035B68FB60FB6823F46053B0
:10077000FB607B684FEAC303FA681343FB604FF4E6
:100780008053C4F20203FA685A6007F11407BD46A9
:1007900080BC704780B487B000AF0346FB714FF058
:1007A0000003FB604FF000037B614FF00003FB741C
:1007B000FB794FEA5313DBB2FB60FB68012B06D1D8
:1007C0004FF48053C4F202031B687B610FE0FB68A7
:1007D000022B06D14FF48053C4F202031B6A7B61E3
:1007E00005E04FF48053C4F202035B6A7B61FB793E
:1007F00003F01F03FB60FB687A6922FA03F303F03E
:100800000103DBB2002B03D04FF00103FB7402E0C5
:100810004FF00003FB74FB7C184607F11C07BD4634
:1008200080BC7047ABBE01E000207047002A00D0BA
:1008300010600120704706980188034A914202D156
:10084000043006907047FEE7ABBE000080B485B070
:1008500000AF78604FF00003FB604FF40053C4F228
:1008600002031B68FB60FB6803F03803FB60FA6857
:100870007B681343FB604FF40053C4F20203FA6831
:100880001A6007F11407BD4680BC704780B483B07E
:1008900000AF78604FF40053C4F202034FF40052EB
:1008A000C4F20202126822F010021A604FF40053E0
:1008B000C4F202034FF40052C4F20202126811465D
:1008C0007A680A431A6007F10C07BD4680BC70477E
:0400000508000000EF
:00000001FF
