:020000040800F2
:10000000FC03002075050008E105000883090008CD
:10001000E1050008E1050008E10500080000000016
:10002000000000000000000000000000E1050008E2
:10003000E105000800000000E1050008E1050008F6
:10004000E1050008E1050008E1050008E1050008F8
:10005000E1050008E1050008E1050008E1050008E8
:10006000E1050008E1050008E1050008E1050008D8
:10007000E1050008E1050008E1050008E1050008C8
:10008000E1050008E1050008E1050008E1050008B8
:10009000E1050008E1050008E1050008E1050008A8
:1000A000E1050008E1050008E1050008E105000898
:1000B000E1050008E1050008E1050008E105000888
:1000C000E1050008E1050008E1050008E105000878
:1000D000E1050008E1050008E1050008E105000868
:1000E000E1050008E1050008E10500080000000046
:1000F0000000000000000000000000000000000000
:1001000000000000000000005FF808F180B500AFBB
:1001100000F006F800F088F800F044FB80BD00BF56
:1001200080B582B000AF00F0A9FB4FF0100000F0E6
:1001300053FC4FF0020000F02FFC4FF48053C4F248
:1001400002034FF48052C4F20202126842F4803279
:100150001A604FF00003FB7109E04FF48053C4F2C2
:1001600002031B684FEA534303F00103FB71FB7961
:1001700083F00103DBB2002BEFD14FF48053C4F2C4
:1001800002034FF48052C4F20202526842F4003279
:100190005A604FF48053C4F202034FF48052C4F209
:1001A0000202526842F4E0125A604FF48053C4F2E3
:1001B00002034FF48052C4F20202526842F48032C9
:1001C0005A604FF48053C4F202034FF48052C4F2D9
:1001D0000202526842F080725A604FF00003BB7115
:1001E00009E04FF48053C4F202031B684FEA5363E3
:1001F00003F00103BB71BB7983F00103DBB2002B79
:10020000EFD14FF48053C4F202034FF48052C4F292
:100210000202526842F002025A6000BF4FF480535B
:10022000C4F202035B68F9E780B582B000AF4FF01B
:100230003003BB804FF01003FB714FF00303BB7121
:1002400007F104034FF44060C4F20100194600F0C6
:10025000CBF94FF00F03BB804FF00003FB7107F1A8
:1002600004034FF40060C4F20100194600F0BCF929
:100270004FF00103BB804FF00003FB7107F1040353
:100280004FF44060C4F20100194600F0ADF94FF0A0
:100290008003BB804FF04803FB7107F104034FF468
:1002A0000060C4F20100194600F09EF94FF002030D
:1002B000BB804FF00403FB7107F104034FF440606F
:1002C000C4F20100194600F08FF94FF4E063BB80DF
:1002D0004FF01803FB7107F104034FF40060C4F200
:1002E0000100194600F080F94FF46043BB804FF0E5
:1002F0001803FB7107F104034FF44060C4F20100DE
:10030000194600F071F907F10807BD4680BD00BF2E
:1003100080B500AF4FF48053C4F202034FF4805213
:10032000C4F20202126842F001021A604FF48052D5
:10033000C4F202024FF48053C4F202035B68194610
:100340004FF00003CFF6FF030B4053604FF4805390
:10035000C4F202034FF48052C4F20202126822F087
:10036000847222F480321A604FF48053C4F2020384
:100370004FF48052C4F20202126822F480221A6002
:100380004FF48053C4F202034FF48052C4F20202CD
:10039000526822F4FE025A604FF48053C4F2020302
:1003A0004FF41F029A6000F009F84FF46D43CEF24B
:1003B00000034FF000629A6080BD00BF80B500AFBF
:1003C00000F002F880BD00BF80B483B000AF4FF0F2
:1003D00000037B604FF000033B604FF48053C4F296
:1003E00002034FF48052C4F20202126842F48032D7
:1003F0001A604FF48053C4F202031B6803F4003305
:100400003B607B6803F101037B603B68002B03D1F9
:100410007B68B3F5A06FECD14FF48053C4F20203B4
:100420001B6803F40033002B03D04FF001033B6043
:1004300002E04FF000033B603B68012B40F09480EA
:100440004FF40053C4F202034FF40052C4F202020C
:10045000126842F010021A604FF40053C4F2020313
:100460004FF40052C4F20202126822F003021A6032
:100470004FF40053C4F202034FF40052C4F20202DC
:10048000126842F002021A604FF48053C4F2020371
:100490004FF48052C4F2020252685A604FF4805303
:1004A000C4F202034FF48052C4F2020252685A604E
:1004B0004FF48053C4F202034FF48052C4F202029C
:1004C000526842F480625A604FF48053C4F20203CF
:1004D0004FF48052C4F20202526822F47C125A6035
:1004E0004FF48053C4F202034FF48052C4F202026C
:1004F000526842F4E8125A604FF48053C4F2020387
:100500004FF48052C4F20202126842F080721A6004
:1005100000BF4FF48053C4F202031B6803F0007362
:10052000002BF6D04FF48053C4F202034FF48052F4
:10053000C4F20202526822F003025A604FF4805360
:10054000C4F202034FF48052C4F20202526842F035
:1005500002025A6000BF4FF48053C4F202035B688A
:1005600003F00C03082BF6D107F10C07BD4680BC45
:10057000704700BF80B582B000AF40F61C23C0F6C4
:1005800000037B6040F20003C2F200033B600BE01B
:100590007B681A683B681A603B6803F104033B60A0
:1005A0007B6803F104037B603A6840F20003C2F207
:1005B00000039A42ECD3084808494FF000028842F1
:1005C000B8BF40F8042BFADBFFF7A2FE00F0E4F816
:1005D00007F10807BD4680BD000000200000002094
:1005E00080B400AFFEE700BF80B489B000AF786090
:1005F00039604FF00003FB614FF000033B614FF0A7
:100600000003BB614FF00003FB604FF000037B6110
:100610004FF00003BB603B68DB7803F00F03FB6126
:100620003B68DB7803F01003002B04D03B689B7819
:10063000FA691343FB613B681B88DBB2002B4ED089
:100640007B681B687B614FF00003BB6141E0BB69C5
:100650004FF0010202FA03F3FB603B681B881A4665
:10066000FB6813403B613A69FB689A422DD1BB6934
:100670004FEA8303FB60FB684FF00F0202FA03F3BB
:10068000BB60BB686FEA03037A6913407B61FB6858
:10069000FA6902FA03F37A6913437B613B68DB78FA
:1006A000282B07D1BB694FF0010202FA03F27B68E5
:1006B0005A610AE03B68DB78482B06D1BB694FF0F2
:1006C000010202FA03F27B681A61BB6903F10103BC
:1006D000BB61BB69072BBAD97B687A691A603B6832
:1006E0001B88FF2B53D97B685B687B614FF000034D
:1006F000BB6146E0BB6903F108034FF0010202FA57
:1007000003F3FB603B681B881A46FB6813403B61A0
:100710003A69FB689A4230D1BB694FEA8303FB60B8
:10072000FB684FF00F0202FA03F3BB60BB686FEA8D
:1007300003037A6913407B61FB68FA6902FA03F3E9
:100740007A6913437B613B68DB78282B08D1BB694E
:1007500003F108034FF0010202FA03F27B685A61C9
:100760003B68DB78482B08D1BB6903F108034FF0E5
:10077000010202FA03F27B681A61BB6903F101030B
:10078000BB61BB69072BB5D97B687A695A6007F1F1
:100790002407BD4680BC704780B500AFFFF7B6FCAC
:1007A000FEE700BF80B500AF4FF002004FF001013F
:1007B00000F0B2F84FF48063C4F200034FF480629B
:1007C000C4F20002928992B242F0100292B29A816F
:1007D0004FF48063C4F200034FF48062C4F200025D
:1007E000928A92B242F0180292B29A824FF48063D7
:1007F000C4F200034FF48062C4F20002928B92B202
:1008000042F4807292B29A834FF48063C4F2000380
:100810004FF48062C4F20002928B92B242F0020264
:1008200092B29A834FF48063C4F200034FF4806263
:10083000C4F20002128C92B242F4807292B21A8414
:100840004FF48063C4F200034FF48062C4F20002EC
:10085000128C92B242F4405292B21A844FF48063E6
:10086000C4F200034FF48062C4F20002128892B214
:1008700042F0010292B21A8080BD00BF80B400AF86
:100880004FF48053C4F202034FF48052C4F20202C8
:10089000126842F001021A604FF48052C4F2020260
:1008A0004FF48053C4F202035B6819464FF0000313
:1008B000CFF6FF030B4053604FF48053C4F20203A2
:1008C0004FF48052C4F20202126822F0847222F4C1
:1008D00080321A604FF48053C4F202034FF4805206
:1008E000C4F20202126822F480221A604FF480538C
:1008F000C4F202034FF48052C4F20202526822F49E
:10090000FE025A604FF48053C4F202034FF41F02F8
:100910009A60BD4680BC704780B483B000AF7860F9
:100920000B46FB70FB78002B0DD04FF48053C4F2C4
:1009300002034FF48052C4F20202D26911467A686F
:100940000A43DA610EE04FF48053C4F202034FF41D
:100950008052C4F20202D26911467A686FEA02023A
:100960000A40DA6107F10C07BD4680BC704700BF42
:10097000ABBE01E000207047002A00D010600120CB
:10098000704706980188034A914202D104300690CC
:100990007047FEE7ABBE000080B485B000AF786062
:1009A0004FF00003FB604FF40053C4F202031B68D6
:1009B000FB60FB6803F03803FB60FA687B68134355
:1009C000FB604FF40053C4F20203FA681A6007F1A7
:1009D0001407BD4680BC704780B483B000AF786018
:1009E0004FF40053C4F202034FF40052C4F2020267
:1009F000126822F010021A604FF40053C4F202038E
:100A00004FF40052C4F20202126811467A680A4397
:0C0A10001A6007F10C07BD4680BC70475F
:0400000508000000EF
:00000001FF
