:020000040800F2
:10000000FC03002071030008DD030008FF03000863
:10001000DD030008DD030008DD0300080000000028
:10002000000000000000000000000000DD030008E8
:10003000DD03000800000000DD030008DD03000808
:10004000DD030008DD030008DD030008DD03000810
:10005000DD030008DD030008DD030008DD03000800
:10006000DD030008DD030008DD030008DD030008F0
:10007000DD030008DD030008DD030008DD030008E0
:10008000DD030008DD030008DD030008DD030008D0
:10009000DD030008DD030008DD030008DD030008C0
:1000A000DD030008DD030008DD030008DD030008B0
:1000B000DD030008DD030008DD030008DD030008A0
:1000C000DD030008DD030008DD030008DD03000890
:1000D000DD030008DD030008DD030008DD03000880
:1000E000DD030008DD030008DD0300080000000058
:1000F0000000000000000000000000000000000000
:1001000000000000000000005FF808F180B500AFBB
:100110004FF48053C4F202034FF48052C4F202023F
:10012000126842F001021A604FF48052C4F20202D7
:100130004FF48053C4F202035B6819464FF000038A
:10014000CFF6FF030B4053604FF48053C4F2020319
:100150004FF48052C4F20202126822F0847222F438
:1001600080321A604FF48053C4F202034FF480527D
:10017000C4F20202126822F480221A604FF4805303
:10018000C4F202034FF48052C4F20202526822F415
:10019000FE025A604FF48053C4F202034FF41F0270
:1001A0009A6000F009F84FF46D43CEF200034FF06F
:1001B00000629A6080BD00BF80B500AF00F002F819
:1001C00080BD00BF80B483B000AF4FF000037B6000
:1001D0004FF000033B604FF48053C4F202034FF42E
:1001E0008052C4F20202126842F480321A604FF464
:1001F0008053C4F202031B6803F400333B607B6846
:1002000003F101037B603B68002B03D17B68B3F5EE
:10021000A06FECD14FF48053C4F202031B6803F4C7
:100220000033002B03D04FF001033B6002E04FF09E
:1002300000033B603B68012B40F094804FF4005377
:10024000C4F202034FF40052C4F20202126842F0F8
:1002500010021A604FF40053C4F202034FF400522C
:10026000C4F20202126822F003021A604FF4005333
:10027000C4F202034FF40052C4F20202126842F0C8
:1002800002021A604FF48053C4F202034FF480520A
:10029000C4F2020252685A604FF48053C4F202035F
:1002A0004FF48052C4F2020252685A604FF48053F5
:1002B000C4F202034FF48052C4F20202526842F4C4
:1002C00080625A604FF48053C4F202034FF48052AC
:1002D000C4F20202526822F47C125A604FF4805336
:1002E000C4F202034FF48052C4F20202526842F494
:1002F000E8125A604FF48053C4F202034FF4805264
:10030000C4F20202126842F080721A6000BF4FF419
:100310008053C4F202031B6803F00073002BF6D075
:100320004FF48053C4F202034FF48052C4F202022D
:10033000526822F003025A604FF48053C4F2020361
:100340004FF48052C4F20202526842F002025A6034
:1003500000BF4FF48053C4F202035B6803F00C0348
:10036000082BF6D107F10C07BD4680BC704700BFD3
:1003700080B582B000AF40F21443C0F600037B604A
:1003800040F20003C2F200033B600BE07B681A6896
:100390003B681A603B6803F104033B607B6803F130
:1003A00004037B603A6840F20003C2F200039A4201
:1003B000ECD3084808494FF000028842B8BF40F823
:1003C000042BFADBFFF7A2FE00F00CF807F1080798
:1003D000BD4680BD000000200000002080B400AFBA
:1003E000FEE700BF80B400AFFEE700BFABBE01E098
:1003F00000207047002A00D0106001207047069846
:100400000188034A914202D1043006907047FEE70A
:04041000ABBE00007F
:0400000508000000EF
:00000001FF
